{
  "contractName": "SafeQMathMock",
  "abi": [
    {
      "inputs": [],
      "name": "MIN",
      "outputs": [
        {
          "internalType": "uint192",
          "name": "",
          "type": "uint192"
        }
      ],
      "stateMutability": "view",
      "type": "function"
    },
    {
      "inputs": [],
      "name": "ONE",
      "outputs": [
        {
          "internalType": "uint192",
          "name": "",
          "type": "uint192"
        }
      ],
      "stateMutability": "view",
      "type": "function"
    }
  ],
  "bytecode": "0x608060405234801561001057600080fd5b5060eb8061001f6000396000f3fe6080604052348015600f57600080fd5b506004361060325760003560e01c806337a7f2b7146037578063c2ee3a0814606d575b600080fd5b603d60a3565b604051808277ffffffffffffffffffffffffffffffffffffffffffffffff16815260200191505060405180910390f35b607360a8565b604051808277ffffffffffffffffffffffffffffffffffffffffffffffff16815260200191505060405180910390f35b600081565b680100000000000000008156fea26469706673582212201ece1a6474df21ce523a123c75c1d80f1257d71f90506ebe5522b771ec07538864736f6c63430007010033",
  "immutableReferences": {},
  "source": "// SPDX-License-Identifier: MIT\npragma solidity ^0.7.1;\n\nimport '../SafeQMath.sol';\n\n// Mock of the SafeQMath lib to be able to test it\ncontract SafeQMathMock {\n    using SafeQMath for uint256;\n    using SafeQMath for uint192;\n\n    uint192 public constant MIN = 0;\n    uint192 public constant ONE = (1 << 64);\n\n    function intToQ(uint256 x) internal pure returns (uint192) {\n        return x.intToQ();\n    }\n\n    function qToIntLossy(uint192 x) internal pure returns (uint256) {\n        return x.qToIntLossy();\n    }\n\n    function qToInt(uint192 x) internal pure returns (uint256) {\n        return x.qToInt();\n    }\n\n    function qfloor(uint192 x) internal pure returns (uint192) {\n        return x.qfloor();\n    }\n\n    function qceil(uint192 x) internal pure returns (uint192) {\n        return x.qceil();\n    }\n\n    function qadd(uint192 x, uint192 y) internal pure returns (uint192) {\n        return x.qadd(y);\n    }\n\n    function qsub(uint192 x, uint192 y) internal pure returns (uint192) {\n        return x.qsub(y);\n    }\n\n    function qmul(uint192 x, uint192 y) internal pure returns (uint192) {\n        return x.qmul(y);\n    }\n\n    function qdiv(uint192 x, uint192 y) internal pure returns (uint192) {\n        return x.qdiv(y);\n    }\n}\n",
  "sourcePath": "/home/philippe/Documents/Programming/Ethereum/safe-qmath/contracts/test/SafeQMathMock.sol",
  "compiler": {
    "name": "solc",
    "version": "0.7.1+commit.f4a555be.Emscripten.clang"
  },
  "schemaVersion": "3.3.2",
  "updatedAt": "2020-11-28T16:06:05.127Z",
  "devdoc": {
    "kind": "dev",
    "methods": {},
    "version": 1
  },
  "userdoc": {
    "kind": "user",
    "methods": {},
    "version": 1
  }
}