{
  "contractName": "SafeQMath",
  "abi": [
    {
      "inputs": [],
      "name": "MIN",
      "outputs": [
        {
          "internalType": "uint192",
          "name": "",
          "type": "uint192"
        }
      ],
      "stateMutability": "view",
      "type": "function"
    },
    {
      "inputs": [],
      "name": "ONE",
      "outputs": [
        {
          "internalType": "uint192",
          "name": "",
          "type": "uint192"
        }
      ],
      "stateMutability": "view",
      "type": "function"
    }
  ],
  "bytecode": "0x60f6610025600b82828239805160001a60731461001857fe5b30600052607381538281f3fe7300000000000000000000000000000000000000003014608060405260043610603d5760003560e01c806337a7f2b7146042578063c2ee3a08146078575b600080fd5b604860ae565b604051808277ffffffffffffffffffffffffffffffffffffffffffffffff16815260200191505060405180910390f35b607e60b3565b604051808277ffffffffffffffffffffffffffffffffffffffffffffffff16815260200191505060405180910390f35b600081565b680100000000000000008156fea2646970667358221220351d149e8bacb4a0a01855273772b2e73bb1786381e5a6897f83b955dcb5e61464736f6c63430007010033",
  "immutableReferences": {},
  "source": "// SPDX-License-Identifier: MIT\npragma solidity ^0.7.1;\n\n// library for UQ128x64 numbers\nlibrary SafeQMath {\n    uint192 public constant MIN = 0;\n    uint192 public constant ONE = (1 << 64);\n\n    function intToQ(uint256 x) internal pure returns (uint192) {\n        require(x <= type(uint128).max, 'SafeQMath: conversion overflow');\n        return uint192(x << 64);\n    }\n\n    function qToIntLossy(uint192 x) internal pure returns (uint256) {\n        return uint256(x >> 64);\n    }\n\n    function qToInt(uint192 x) internal pure returns (uint256) {\n        require(uint64(x) == 0, 'SafeQMath: truncating decimals');\n        return uint256(x >> 64);\n    }\n\n    function qfloor(uint192 x) internal pure returns (uint192) {\n        return x >> 64 << 64;\n    }\n\n    function qceil(uint192 x) internal pure returns (uint192) {\n        return uint64(x) > 0 ? qadd(qfloor(x), 1 << 64) : x;\n    }\n\n    function qadd(uint192 x, uint192 y) internal pure returns (uint192) {\n        uint192 z = x + y;\n        require(z >= x, 'SafeQMath: addition overflow');\n        return z;\n    }\n\n    function qsub(uint192 x, uint192 y) internal pure returns (uint192) {\n        require(x >= y, 'SafeQMath: subtraction overflow');\n        return x - y;\n    }\n\n    function qmul(uint192 x, uint192 y) internal pure returns (uint192) {\n        if (x == 0) {\n            return 0;\n        }\n\n        uint256 res = uint256(x) * uint256(y);\n        require(\n            res / uint256(x) == uint256(y),\n            'SafeQMath: multiplication overflow'\n        );\n        return uint192(res >> 64);\n    }\n\n    function qdiv(uint192 x, uint192 y) internal pure returns (uint192) {\n        require(y > 0, 'SafeQMath: Divisor 0');\n        uint256 z = (uint256(x) << 64) / uint256(y);\n        require(z <= type(uint192).max,  'SafeQMath: divison overflow');\n        return uint192(z);\n    }\n}\n",
  "sourcePath": "/home/philippe/Documents/Programming/Ethereum/safe-qmath/contracts/SafeQMath.sol",
  "compiler": {
    "name": "solc",
    "version": "0.7.1+commit.f4a555be.Emscripten.clang"
  },
  "schemaVersion": "3.3.2",
  "updatedAt": "2020-11-28T16:06:05.125Z",
  "devdoc": {
    "kind": "dev",
    "methods": {},
    "version": 1
  },
  "userdoc": {
    "kind": "user",
    "methods": {},
    "version": 1
  }
}